{
  "contractName": "BookVoting",
  "abi": [
    {
      "constant": true,
      "inputs": [
        {
          "name": "",
          "type": "uint256"
        }
      ],
      "name": "books",
      "outputs": [
        {
          "name": "id",
          "type": "uint256"
        },
        {
          "name": "name",
          "type": "string"
        },
        {
          "name": "author",
          "type": "string"
        },
        {
          "name": "date",
          "type": "string"
        },
        {
          "name": "picture",
          "type": "string"
        },
        {
          "name": "voteCount",
          "type": "uint256"
        }
      ],
      "payable": false,
      "stateMutability": "view",
      "type": "function"
    },
    {
      "constant": true,
      "inputs": [
        {
          "name": "",
          "type": "address"
        }
      ],
      "name": "voters",
      "outputs": [
        {
          "name": "",
          "type": "bool"
        }
      ],
      "payable": false,
      "stateMutability": "view",
      "type": "function"
    },
    {
      "inputs": [],
      "payable": false,
      "stateMutability": "view",
      "type": "function",
      "constant": true,
      "name": "booksCount",
      "outputs": [
        {
          "name": "",
          "type": "uint256"
        }
      ]
    },
    {
      "inputs": [],
      "payable": false,
      "stateMutability": "nonpayable",
      "type": "constructor"
    },
    {
      "anonymous": false,
      "inputs": [
        {
          "indexed": true,
          "name": "_bookId",
          "type": "uint256"
        }
      ],
      "name": "votedEvent",
      "type": "event"
    },
    {
      "constant": false,
      "inputs": [
        {
          "name": "_bookId",
          "type": "uint256"
        }
      ],
      "name": "vote",
      "outputs": [],
      "payable": false,
      "stateMutability": "nonpayable",
      "type": "function"
    }
  ],
  "bytecode": "0x608060405234801561001057600080fd5b506101006040805190810160405280600481526020017f4461776e000000000000000000000000000000000000000000000000000000008152506040805190810160405280600c81526020017f696d616765732f322e6a706700000000000000000000000000000000000000008152506040805190810160405280601381526020017f53656c6168617474696e2044656d6972746173000000000000000000000000008152506040805190810160405280600a81526020017f323031392d30342d3233000000000000000000000000000000000000000000008152506103d2640100000000026401000000009004565b6101ef6040805190810160405280601381526020017f4c6f6f6b696e67206174205069637475726573000000000000000000000000008152506040805190810160405280600c81526020017f696d616765732f342e6a706700000000000000000000000000000000000000008152506040805190810160405280600d81526020017f526f626572742057616c736572000000000000000000000000000000000000008152506040805190810160405280600a81526020017f323031392d30312d3230000000000000000000000000000000000000000000008152506103d2640100000000026401000000009004565b6102de6040805190810160405280600881526020017f4265636f6d696e670000000000000000000000000000000000000000000000008152506040805190810160405280600c81526020017f696d616765732f352e6a706700000000000000000000000000000000000000008152506040805190810160405280600e81526020017f4d696368656c6c65204f62616d610000000000000000000000000000000000008152506040805190810160405280600a81526020017f323031382d31312d3133000000000000000000000000000000000000000000008152506103d2640100000000026401000000009004565b6103cd6040805190810160405280600981526020017f54686520496c69616400000000000000000000000000000000000000000000008152506040805190810160405280600c81526020017f696d616765732f372e6a706700000000000000000000000000000000000000008152506040805190810160405280600781526020017f556e6b6e6f776e000000000000000000000000000000000000000000000000008152506040805190810160405280600a81526020017f323031392d30332d3132000000000000000000000000000000000000000000008152506103d2640100000000026401000000009004565b61055f565b60026000815480929190600101919050555060c06040519081016040528060025481526020018581526020018481526020018381526020018281526020016000815250600080600254815260200190815260200160002060008201518160000155602082015181600101908051906020019061044f9291906104ba565b50604082015181600201908051906020019061046c9291906104ba565b5060608201518160030190805190602001906104899291906104ba565b5060808201518160040190805190602001906104a69291906104ba565b5060a0820151816005015590505050505050565b828054600181600116156101000203166002900490600052602060002090601f016020900481019282601f106104fb57805160ff1916838001178555610529565b82800160010185558215610529579182015b8281111561052857825182559160200191906001019061050d565b5b509050610536919061053a565b5090565b61055c91905b80821115610558576000816000905550600101610540565b5090565b90565b61074c8061056e6000396000f3fe608060405260043610610062576000357c0100000000000000000000000000000000000000000000000000000000900463ffffffff1680630121b93f1461006757806368744046146100a2578063a3ec138d146102a8578063e1cb4d0314610311575b600080fd5b34801561007357600080fd5b506100a06004803603602081101561008a57600080fd5b810190808035906020019092919050505061033c565b005b3480156100ae57600080fd5b506100db600480360360208110156100c557600080fd5b810190808035906020019092919050505061045e565b604051808781526020018060200180602001806020018060200186815260200185810385528a818151815260200191508051906020019080838360005b83811015610133578082015181840152602081019050610118565b50505050905090810190601f1680156101605780820380516001836020036101000a031916815260200191505b50858103845289818151815260200191508051906020019080838360005b8381101561019957808201518184015260208101905061017e565b50505050905090810190601f1680156101c65780820380516001836020036101000a031916815260200191505b50858103835288818151815260200191508051906020019080838360005b838110156101ff5780820151818401526020810190506101e4565b50505050905090810190601f16801561022c5780820380516001836020036101000a031916815260200191505b50858103825287818151815260200191508051906020019080838360005b8381101561026557808201518184015260208101905061024a565b50505050905090810190601f1680156102925780820380516001836020036101000a031916815260200191505b509a505050505050505050505060405180910390f35b3480156102b457600080fd5b506102f7600480360360208110156102cb57600080fd5b81019080803573ffffffffffffffffffffffffffffffffffffffff1690602001909291905050506106fa565b604051808215151515815260200191505060405180910390f35b34801561031d57600080fd5b5061032661071a565b6040518082815260200191505060405180910390f35b600160003373ffffffffffffffffffffffffffffffffffffffff1673ffffffffffffffffffffffffffffffffffffffff16815260200190815260200160002060009054906101000a900460ff1615151561039557600080fd5b6000811180156103a757506002548111155b15156103b257600080fd5b60018060003373ffffffffffffffffffffffffffffffffffffffff1673ffffffffffffffffffffffffffffffffffffffff16815260200190815260200160002060006101000a81548160ff02191690831515021790555060008082815260200190815260200160002060050160008154809291906001019190505550807ffff3c900d938d21d0990d786e819f29b8d05c1ef587b462b939609625b684b1660405160405180910390a250565b6000602052806000526040600020600091509050806000015490806001018054600181600116156101000203166002900480601f0160208091040260200160405190810160405280929190818152602001828054600181600116156101000203166002900480156105105780601f106104e557610100808354040283529160200191610510565b820191906000526020600020905b8154815290600101906020018083116104f357829003601f168201915b505050505090806002018054600181600116156101000203166002900480601f0160208091040260200160405190810160405280929190818152602001828054600181600116156101000203166002900480156105ae5780601f10610583576101008083540402835291602001916105ae565b820191906000526020600020905b81548152906001019060200180831161059157829003601f168201915b505050505090806003018054600181600116156101000203166002900480601f01602080910402602001604051908101604052809291908181526020018280546001816001161561010002031660029004801561064c5780601f106106215761010080835404028352916020019161064c565b820191906000526020600020905b81548152906001019060200180831161062f57829003601f168201915b505050505090806004018054600181600116156101000203166002900480601f0160208091040260200160405190810160405280929190818152602001828054600181600116156101000203166002900480156106ea5780601f106106bf576101008083540402835291602001916106ea565b820191906000526020600020905b8154815290600101906020018083116106cd57829003601f168201915b5050505050908060050154905086565b60016020528060005260406000206000915054906101000a900460ff1681565b6002548156fea165627a7a7230582028fe54d105f24e9b8f21809fd9b270ff027005699f1c1b99a55f0e7e7504551e0029",
  "source": "pragma solidity ^0.5.0;\r\n\r\n contract BookVoting {\r\n\r\n    // kieu bien book\r\n    struct Book {\r\n      uint id;\r\n      string name;\r\n      string author;\r\n      string date;\r\n      string picture;\r\n      uint voteCount;\r\n      }\r\n    // doc va ghi sach de cu\r\n    mapping(uint => Book) public books;\r\n\r\n    // luu account da vote\r\n    mapping(address => bool) public voters;\r\n\r\n    // so sach de cu\r\n    uint public booksCount;\r\n\r\n    // voted event\r\n    event votedEvent (\r\n        uint indexed _bookId\r\n    );\r\n\r\n    // ham Khoi tao constructor\r\n    constructor() public {\r\n      addBook(\"Dawn\",\"images/2.jpg\",\"Selahattin Demirtas\",\"2019-04-23\");\r\n      addBook(\"Looking at Pictures\",\"images/4.jpg\",\"Robert Walser\",\"2019-01-20\");\r\n      addBook(\"Becoming\",\"images/5.jpg\",\"Michelle Obama\",\"2018-11-13\");\r\n      addBook(\"The Iliad\",\"images/7.jpg\",\"Unknown\",\"2019-03-12\");\r\n      }\r\n\r\n    //them sach de cu\r\n    function addBook(string memory _name,string memory _picture ,string memory _author,string memory _date) private {\r\n      booksCount++;\r\n      books[booksCount] = Book( booksCount, _name,_picture,_author,_date, 0);\r\n    }\r\n\r\n    function vote (uint _bookId) public {\r\n\r\n      require(!voters[msg.sender]);\r\n      require(_bookId > 0 && _bookId <= booksCount);\r\n      voters[msg.sender] = true;\r\n      books[_bookId].voteCount ++;\r\n      emit votedEvent(_bookId);\r\n    }\r\n }\r\n",
  "sourcePath": "F:/DApp/BookVoting/contracts/BookVoting.sol",
  "compiler": {
    "name": "solc",
    "version": "0.5.0+commit.1d4f565a.Emscripten.clang"
  },
  "schemaVersion": "3.0.9",
  "updatedAt": "2019-05-20T08:01:46.519Z",
  "devdoc": {
    "methods": {}
  },
  "userdoc": {
    "methods": {}
  }
}